:020000040800F2
:1000000068110020010100083D170008510F000889
:1000100039170008B50A0008CF25000800000000C5
:10002000000000000000000000000000B9210008EE
:10003000B90A000800000000692000081901000842
:100040001B0100081B0100081B0100081B01000820
:100050001B0100081B0100081B0100081B01000810
:100060001B0100081B0100081B0100081B01000800
:100070001B0100081B0100081B0100081B010008F0
:100080001B0100081B0100081B0100081B010008E0
:100090001B0100081B0100081B0100081B010008D0
:1000A0001B0100081B0100081B0100081B010008C0
:1000B0001B0100081B0100081B0100081B010008B0
:1000C0001B0100081B0100081B0100081B010008A0
:1000D0001B0100082D230008B52300081B010008A0
:1000E0001B0100081B0100081B010008DFF80CD0F1
:1000F00000F0E2FA00480047F92D000868110020DE
:100100000648804706480047FEE7FEE7FEE7FEE7B1
:10011000FEE7FEE7FEE7FEE7FEE7FEE7CD2200088A
:10012000ED00000840EA01039B0703D009E008C97D
:10013000121F08C0042AFAD203E011F8013B00F8AC
:10014000013B521EF9D27047D2B201E000F8012BF8
:10015000491EFBD270470022F6E710B513460A4647
:1001600004461946FFF7F0FF204610BD421E12F864
:10017000013F002BFBD111F8013B02F8013B002BA2
:10018000F9D1704730B505462A460B4612F8010BE7
:1001900013F8014B08B1A042F8D01CB1002802D0DE
:1001A0006D1CF1E7284630BDCAB2401E10F8011F91
:1001B0008A4202D00029F9D100207047421C10F871
:1001C000011B0029FBD1801A704710B5044600E0DE
:1001D000401C0378002BFBD100E0401C521E04D3CE
:1001E00011F8013B0370002BF7D10021017020466C
:1001F00010BD034611F8012B00F8012B002AF9D19C
:100200001846704770B5064602F0D4FA04680546F1
:100210000A220021304600F083F92C6070BD80EA8C
:10022000010210B502F00043400022D04A001FD066
:10023000010E01EB1261C0F35600C2F3560240F406
:10024000000042F40002A0FB022000047F391404E5
:1002500000D0401C50EA124001D44000491EC2B2F6
:100260000C0604EBD010401C4008802A02D003E0AA
:10027000002010BD20F00100002900DA0020184302
:1002800010BD2DE9FE4F81EA030404F0004421F083
:10029000004100944FF0000B23F0004350EA0104AA
:1002A0005ED052EA03045BD0C3F30A54C1F30A558B
:1002B0002C44A4F2F3340194A0FB0254C1F31301C3
:1002C00041F48011C3F3130343F4801301FB024490
:1002D00000FB034E840A970A44EA815447EA835795
:1002E000A4FB076802958D0A05FB07854FEA932C4E
:1002F00004FB0C542705029D4FEA065847EA1637BF
:10030000B5EB08056EEB070C870E920E47EA8117D6
:1003100042EA8312A7FB0201B6EB0B0164EB000477
:100320002B0D43EA0C335E1844EB1C50DA46514661
:10033000E7FB0201C5F313044FEA0B3343EA1453FE
:100340004FEA0432019C43EA0603A4F10C04029430
:10035000009CCDE900B400F061F903B0BDE8F08F76
:1003600000200146F9E72DE9F04D81EA030404F08D
:10037000004B21F0004514464FF0000A23F00041E5
:1003800050EA050220D054EA01021DD0C5F30A57F5
:100390000246C5F31303C1F31300C1F30A5640F438
:1003A000801543F48013A7EB0608101BD64608F20D
:1003B000FD3873EB050002D308F1010801E0921843
:1003C0005B41B8F1000F03DA00200146BDE8F08D73
:1003D00000204FF48011064684460EE0171B73EB95
:1003E000050705D3121B63EB050306434CEA010C1A
:1003F00049084FEA300092185B4150EA0107EDD1FD
:1004000052EA030012D082EA040083EA050108439D
:1004100005D0101BAB4106D20122002306E00022CA
:100420004FF0004302E06FF0010253101AEB060098
:100430004CEB085110EB0A0041EB0B01BDE8F04D0D
:1004400000F0DDB896230022114600F0AAB800F0B3
:10045000004220F00040C10DC0F3160040F400003F
:100460007F2901DA00207047962903DCC1F196014B
:10047000C84001E096398840002AF4D040427047D5
:1004800000F0004230F000400AD0C10D01F560716B
:10049000C0F3160042EA0151C208400711437047F9
:1004A00000200146704701F0004330B421F00041C4
:1004B00050EA010206D00A0DA2F56072C1F31301E1
:1004C000002A02DC30BC00207047440F44EAC1041B
:1004D000C100E01830BC00EBC25000F059B8000079
:1004E000002801DBC0F10040002901DBC1F100411F
:1004F0008842704730B50B46014600202022012477
:1005000009E021FA02F59D4205D303FA02F5491BE1
:1005100004FA02F52844151EA2F10102F1DC30BDF7
:100520002DE9F04791460F4680460446002614F810
:10053000015B2DB100F0F2F80068405DC007F6D114
:100540002B2D02D02D2D18D0641E4A463946204648
:1005500000F0E8F827B13968A14201D1C7F800805E
:1005600071054FF002040BD54042002803DD02F074
:1005700021F90460A007BDE8F08746F48066E4E74F
:100580000028F8DA02F016F904606FF00040F2E794
:100590000029A8BF7047401C490008BF20F0010097
:1005A000704710B4B0FA80FC00FA0CF050EA010475
:1005B00004BF10BC704749B1CCF1200421FA04F407
:1005C00011FA0CF118BF012121430843A3EB0C01E0
:1005D000CB1D4FEA00614FEA102042BF002010BC43
:1005E000704700EBC35010440029A4BF10BC7047F3
:1005F000401C490008BF20F0010010BC704710B536
:10060000141E73F1000408DA401C41F10001921835
:100610005B411A4301D120F0010010BD2DE9F04DDE
:1006200092469B4611B1B1FA81F202E0B0FA80F233
:100630002032904600F052F804460F4640EA0A0085
:1006400041EA0B0153465A46084313D0114653EA78
:10065000010019D0C8F14002504600F04EF805469E
:100660000E4650465946424600F038F8084305D039
:10067000012004E020463946BDE8F08D0020054306
:1006800046EAE0762C4337430A986305E40AA0EB78
:1006900008000022FD0A44EA47540A3002D500202F
:1006A0000146E9E7010510196941DDE9084500192E
:1006B0006941BDE8F04DA2E7064C074D06E0E06851
:1006C00040F0010394E8070098471034AC42F6D399
:1006D000FFF710FD0C3800082C380008202A04DB36
:1006E000203A00FA02F1002070479140C2F1200345
:1006F00020FA03F3194390407047202A04DB203A84
:1007000021FA02F00021704721FA02F3D040C2F131
:100710002002914008431946704700000048704786
:10072000083800082DE9F05F82460078002715465A
:100730008B460AF10104B946302801D09DB113E07F
:1007400014F8010B0127782803D0582801D045B1AF
:100750000AE00DB1102D07D10027102514F8010B68
:1007600002E0082500E00A250026B0460EE005FB61
:10077000080005FB06F1012701EB10461FFA80F87F
:10078000B6F5803F00D3B94614F8010B294600F0B6
:1007900018F80028EBDABBF1000F05D00FB1641E8A
:1007A00000E05446CBF80040B9F1000F06D002F04B
:1007B00001F802210160C81EBDE8F09F48EA06402A
:1007C000FAE73A2800D2303820F02002412A01D33B
:1007D000A2F13700884201D34FF0FF30704770B567
:1007E0008C1810F8015B15F0070301D110F8013BDC
:1007F0002A1106D110F8012B03E010F8016B01F863
:10080000016B5B1EF9D12B0705D40023521E0DD4BA
:1008100001F8013BFAE710F8013BCB1A921C03E008
:1008200013F8015B01F8015B521EF9D5A142D8D340
:10083000002070BD21B1826842F00102826003E0B5
:10084000826822F0010282607047000010B5044601
:100850001248844208D10121401501F033FC0021E7
:10086000601501F02FFC17E00D48844208D10121EA
:10087000001501F027FC0021201501F023FC0BE0FE
:100880000848844208D10121C80301F01BFC002163
:100890004FF4004001F016FC10BD000000240140A0
:1008A00000280140003C0140014600208A6802F017
:1008B00004020AB1012000E0002070470146C86C24
:1008C00080B270470246002013680B400BB1012034
:1008D00000E000207047014600208A6802F008020C
:1008E0000AB1012000E000207047000030B5024648
:1008F0000020002350680F4C20400D790C6844EA1A
:1009000005242043506090680B4C2040D1E90254EC
:100910002C434D7944EA450420439060D06A20F48A
:1009200070000C7C641EE4B2234340EA0350D062A2
:1009300030BD0000FFFEF0FFFDF7F1FFF0B504460B
:100940000D4600200021092D11DDE068A5F10A0601
:1009500006EB4607072606FA07F18843A5F10A06C3
:1009600006EB460603FA06F10843E0600CE0206956
:1009700005EB4507072606FA07F1884305EB450610
:1009800003FA06F108432061072A0FDA606B561E4E
:1009900006EB86071F2606FA07F18843561E06EB6C
:1009A000860605FA06F10843606322E00D2A0FDA95
:1009B000206BD61F06EB86071F2606FA07F1884331
:1009C000D61F06EB860605FA06F10843206310E001
:1009D000E06AA2F10D0606EB86071F2606FA07F16C
:1009E0008843A2F10D0606EB860605FA06F10843D8
:1009F000E062F0BD816841F008018160704721B17B
:100A0000826842F4A002826003E0826822F4A002BD
:100A100082607047816841F0040181607047000086
:100A200000B587B001214FF4017001F03BFB4FF49A
:100A3000804001F01BFB00208DF81B000220ADF868
:100A4000180003208DF81A0006A9184800F0B4F920
:100A50001748FFF7FBFE00208DF8090004904FF4C3
:100A6000602003900020019001208DF814000020E8
:100A70008DF8080001A90E48FFF738FF01210C4846
:100A8000FFF7D8FE0A48FFF7B5FF00BF0848FFF799
:100A900022FF0028FAD10648FFF7BCFF00BF044838
:100AA000FFF702FF0028FAD107B000BD000801409F
:100AB0000024014000BFFEE77047000010B5802110
:100AC0000348FFF748FB00200249088010BD0000E2
:100AD000E80A00203200002070B50546002400BF5F
:100AE00000F050F980B90DA10E48FFF74BFB04460A
:100AF00054B13A212046FFF757FB044614B1641C59
:100B0000204670BD0020FCE7052001F06BFF2800A7
:100B1000A5F101018DB2E3D100BFF2E74950442CA9
:100B200000000000E80A002008B50121082001F0BB
:100B3000B9FA10208DF803000220ADF80000032060
:100B40008DF802006946324800F036F90022022191
:100B50002F4800F0C9F9FA2001F044FF01220221D8
:100B60002B4800F0C1F94FF4FA7001F03BFFFFF79A
:100B7000A5FF28A001F0FAFD03E04FF4FA7001F0A0
:100B800031FFC82225A126A000F0B2F80028F4D138
:100B900025A001F0EBFD03E04FF4FA7001F022FF15
:100BA000C8221EA123A000F0A3F80028F4D125A09C
:100BB00001F0DCFD03E04FF4FA7001F013FFC822EE
:100BC00016A123A000F094F80028F4D124A001F08D
:100BD000CDFD03E04FF4FA7001F004FFC82222A11A
:100BE00023A000F085F80028F4D12CA001F0BEFD70
:100BF00003E04FF4FA7001F0F5FEC8222AA12CA000
:100C000000F076F80028F4D134A001F0AFFD08BD63
:100C1000000C014041540D0A000000004F4B000041
:100C200041540D0A0D00000043574D4F44450D0A35
:100C30000000000041542B43574D4F44453D310DBA
:100C40000A00000041542B4357444843500D0A000A
:100C500041542B4357444843503D312C310D0A0039
:100C600043574A41500D0A00474F54204950000055
:100C700041542B43574A41503D225265646D6920CF
:100C80004B3430222C223532302E31333634363943
:100C90003939323738220D0A0000000043495053D9
:100CA000544152540D0A0000434F4E4E45435400E8
:100CB00041542B43495053544152543D22544350C4
:100CC000222C223138332E3233302E34302E333929
:100CD000222C363030320D0A0000000045535038C7
:100CE00032363620496E6974204F4B0D0A000000E1
:100CF0002DE9F04105460E4614462846FFF75EFAF8
:100D000087B23946284601F00BFD0FE000F03AF8B3
:100D100048B931460948FFF735FA20B1FFF7CEFE52
:100D20000020BDE8F0810A2001F05CFE2000A4F163
:100D300001018CB2EAD10120F3E70000E80A0020AB
:100D400030B589B005460C46FFF7B8FE224608A12B
:100D500001A801F01BFDC82209A101A8FFF7C8FFE7
:100D600018B92146284601F0DBFC09B030BD00006F
:100D700041542B43495053454E443D25640D0A00D0
:100D80003E0000000A48008808B901207047084862
:100D9000008808490988884203D100200449088056
:100DA000F4E703480088034908800120EEE70000CB
:100DB00032000020340000202DE9F04102460025D9
:100DC0000026002000230024002791F803C00CF027
:100DD0000F0591F803C00CF0100CBCF1000F03D00C
:100DE00091F802C04CEA050591F800C0BCF1000F73
:100DF00031D0146800202BE04FF0010C0CFA00F306
:100E0000B1F800C00CEA03069E4220D183004FF0E7
:100E10000F0C0CFA03F7BC4305FA03FC4CEA04047C
:100E200091F803C0BCF1280F06D14FF0010C0CFA69
:100E300000FCC2F814C00AE091F803C0BCF1480FEE
:100E400005D14FF0010C0CFA00FCC2F810C0401C98
:100E50000828D1D31460B1F800C0BCF1FF0F34DD15
:100E6000546800202EE000F1080C4FF0010808FA49
:100E70000CF3B1F800C00CEA03069E4221D18300B6
:100E80004FF00F0C0CFA03F7BC4305FA03FC4CEAD5
:100E9000040491F803C0BCF1280F05D100F1080C3F
:100EA00008FA0CF8C2F8148091F803C0BCF1480F9E
:100EB00007D100F1080C4FF0010808FA0CF8C2F84D
:100EC0001080401C0828CED35460BDE8F081024653
:100ED000002093680B400BB1012000E00020704718
:100EE00041617047016170470AB1016100E04161F1
:100EF0007047000010B5044600230122214609482E
:100F0000FFF71CFD01210748FFF779FD00BF022113
:100F10000448FFF7D7FC0028F9D00248FFF7CEFCC1
:100F200010BD0000002401402DE9F04107460C46A9
:100F30000025002605E03846FFF7DCFF0544701C5D
:100F4000C6B2A642F7DBB5FBF4F080B2BDE8F08193
:100F500000BFFEE710B54FF4A06000F029FC01F0DF
:100F60001FFD01F0B9FDFFF75BFD01F09FFE01F0F1
:100F7000B3FE00F051FC4FF4E13001F02BFB4FF4D5
:100F8000E13001F077FBFF2000F029FC4FF4FA601C
:100F900001F028FD002000F022FC4FF4FA6001F07F
:100FA00021FD10BD70B505460C4601F0DFFE78202E
:100FB00001F0B2FE01F002FF00B110E0284601F09E
:100FC000ABFE01F0FBFE00B109E0204601F0A4FEFB
:100FD00001F0F4FE00B102E001F0E0FE00BF01F01C
:100FE000DDFE70BD10B50446207B012802D12068CB
:100FF00001F034FE002020606060A060207310BD0E
:101000000246002301230DE002F07F000870D209A0
:101010002AB1087840F080000870491C01E01846A9
:1010200070475B1C042BEFDD4FF0FF30F8E770B525
:1010300004460E460025206898B9012020733046EA
:1010400001F05EFF20602068E0B100206060A660D3
:1010500003E00020216848556D1CA068A842F8D81C
:1010600010E00220207303E00020216848556D1C29
:10107000A068A842F8D800206060A068B04201D201
:101080000020206070BD00002DE9FF5F07460D467F
:1010900090463846FFF792F886B22846FFF78EF85A
:1010A0001FFA80FA4FF00009B01D01F029FF044635
:1010B0001CB9012004B0BDE8F09FB11D2046FFF728
:1010C0004AF812A0016821608088A0803246394623
:1010D0002046FFF77AF82846FFF770F8834601208C
:1010E000002100915B462A46CDE902080191214684
:1010F0000A2000F05FF910B94FF0000901E04FF04D
:101100000109204601F0AAFD4846D3E72463727323
:10111000702F00002DE9FF4F83B082468B46914629
:10112000159C0025002002900F2701904846FFF7EC
:1011300045F80FFA80F8B9F1000F03D1012007B08C
:10114000BDE8F08F08F10200384487B2109808B16A
:1011500045F00205129878B145F004051298FFF7A2
:101160002DF8C0B202901398FFF728F801460298B4
:10117000001D0844384487B2119820B1012804D0DA
:10118000022808D104E000BF07E045F00C0504E0A8
:1011900045F0140501E00220D1E700BF149808B122
:1011A00045F02405BAF1000F02D0BBF1000F01D1C8
:1011B0000320C4E745F0C0055046FEF7FFFF064692
:1011C0005846FEF7FBFF3044001D384487B23946CD
:1011D0002046FFF72CFF206808B90420AFE7394606
:1011E0002068FEF7B8FF10216268501C606020681C
:1011F0008154D4E90023D118781FFFF701FF00B212
:1012000001900198002804DA2046FFF7EBFE052044
:1012100095E7616801980844606000216268501C8D
:1012200060602068815404216268501C60602068FE
:1012300081544D216268501C6060206881545121A6
:101240006268501C60602068815454216268501CA0
:101250006060206881546268501C6060206881541E
:1012600004216268501C6060206881546168481CD9
:101270006060206845540698010A6268501C6060EE
:10128000206881540698C1B26268501C6060206872
:101290008154C8F307216268501C60602068815443
:1012A0006268501C6060206800F80280D4E9001277
:1012B000881842464946FEF788FF606840446060EF
:1012C00005F00400B8B30026139808B938A01390AD
:1012D0001298FEF773FF86B2310A6268501C606094
:1012E000206881546268501C606020688654D4E98C
:1012F0000012881832461299FEF767FF6068304482
:1013000060601398FEF75AFF86B2310A6268501C7B
:101310006060206881546268501C60602068865458
:10132000D4E90012881832461399FEF74EFF606820
:101330003044606000BF05F08000C8B15046FEF741
:101340003DFF86B2310A6268501C6060206881549B
:101350006268501C606020688654D4E900128818C6
:1013600032465146FEF731FF60683044606000BF8E
:1013700005F04000C8B15846FEF720FF86B2310A9A
:101380006268501C6060206881546268501C606014
:1013900020688654D4E90012881832465946FEF770
:1013A00014FF60683044606000BF0020C7E60000A2
:1013B000000000002DE9FF4F83B083469046994618
:1013C000139C002600250020029001900027BBF10D
:1013D000000F03D1012007B0BDE8F08F00250AE01F
:1013E0000498405D232803D00498405D2B2801D148
:1013F0000220F0E76D1C0498405D0028F0D147F012
:101400003007119808B147F0010705EB0900861C69
:10141000109820B1012804D002280AD105E000BFAD
:1014200009E047F00207B61C05E047F00407B61CC8
:1014300001E00320CFE700BF98F80000022822D186
:101440004FF0000A00BF50460AF1010A18F80000E8
:101450007D28F8D1AAF1030A0AF107000290029848
:10146000A9EB000AF01CA0EB0A012046FFF7DFFD04
:10147000206808B90420AEE7F21CA2EB0A0120683C
:10148000FEF769FE0BE0F11C2046FFF7D0FD206857
:1014900008B904209FE7F11C2068FEF75CFE616834
:1014A000481C606020684754D4E900028118304627
:1014B000FFF7A6FD01900198002804DA2046FFF707
:1014C00091FD052087E76168019808446060C5F3D5
:1014D00007216268501C6060206881546268501C5B
:1014E000606020688554D4E9001288182A4604995F
:1014F000FEF76BFE606828446060109860B14FEAA8
:101500001B216268501C6060206881546268501C16
:101510006060206800F802B0B8F1000F19D098F8A8
:10152000000002280BD1D4E9001288184146029A23
:10153000FEF7F8FD616802980844606009E0D4E9AC
:10154000001288184A464146FEF7ECFD60684844A0
:10155000606000203FE700002DE9FF4107460D468F
:1015600090461E460A9C01200021CDE90001EB1C9B
:101570000A460FA1CDE902040A20FFF71BFF88B934
:101580006168481C606020684654C5F307216268A2
:10159000501C6060206881546268501C6060206844
:1015A000855403E0012004B0BDE8F0810020FAE793
:1015B00024647000F0B504460D4626460123002041
:1015C0001060002114E0775C07F07F07106807FBCC
:1015D00003001060705C00F0800008B9481CF0BD8A
:1015E000DB01B3F5001F02D36FF00100F7E7491CE0
:1015F000A942E8DB4FF0FF30F1E72DE9F8438046E0
:101600000C4615461E462F2108F10600FEF7CCFDBC
:1016100007460020009017B90120BDE8F8837F1C21
:101620006A46042108F10100FFF7C4FF252001F0FC
:1016300067FC2060206808B90220EEE725212068B9
:10164000FEF789FD242239462068FEF76BFD24371A
:1016500000982C3830803188481C01F051FC2860FB
:10166000286820B9206801F0F9FA0320D5E732880C
:10167000511C2868FEF76FFD328839462868FEF74E
:1016800051FD0020C9E701464878022801D0012019
:101690007047887810B18878012801D1C878F7E7B9
:1016A000FF20F5E701464878022801D00120704765
:1016B000887820B9C8780A2801D10020F7E70120EE
:1016C000F5E70000F8B50446FF2720780511012D45
:1016D00001DB0E2D01DD3846F8BD032D24D100209D
:1016E00000906A460421601CFFF764FF2044461CFA
:1016F0000098022803D3207800F0010008B1FF20F1
:10170000EAE77078317840EA0120801C009988422D
:1017100001D9FF20E0E706A1B01CFEF733FD08B1B8
:101720000F2700E0032700E02F463846D4E70000EB
:10173000246372657100000000BFFEE7704700007F
:1017400070B5002100230F22C47804B3154C24681F
:1017500004F4E064C4F5E064210AC1F10403CA4062
:10176000447804FA03F184781440214309010E4CB3
:101770000678A155047804F01F050124AC400578D3
:101780006D11AD0005F1E025C5F8004109E00478D0
:1017900004F01F050124AC40044D0678761145F88D
:1017A000264070BD0CED00E000E400E080E100E0C8
:1017B00002490143024A1160704700000000FA0527
:1017C0000CED00E010B5FFF7AFF903E04FF4FA704D
:1017D00001F008F900F09AF90028F7D110BD70B5B2
:1017E0000646002415E004F1B001C8B200F0B0FFD5
:1017F000002000F0ADFF102000F0AAFF002504E05B
:10180000304600F0ACFF681CC5B2802DF8DB601CD0
:10181000C4B2082CE7DB70BD10B54FF47A7001F04C
:10182000E1F8AE2000F094FF202000F091FF10209E
:1018300000F08EFFB02000F08BFFC82000F088FF82
:10184000002000F085FF102000F082FF402000F013
:101850007FFF812000F07CFFFF2000F079FFA120B6
:1018600000F076FFA62000F073FFA82000F070FFC4
:101870003F2000F06DFFA42000F06AFFD32000F0AD
:1018800067FF002000F064FFD52000F061FFF0202A
:1018900000F05EFFD92000F05BFF222000F058FF2F
:1018A000DA2000F055FF122000F052FFDB2000F09C
:1018B0004FFF202000F04CFF8D2000F049FF142046
:1018C00000F046FFAF2000F043FF10BD70B50446A6
:1018D0000D4605F1B001C8B200F03AFF102141EA0F
:1018E000141000F035FF04F00F0141F0010000F08A
:1018F0002FFF70BD2DE9F04180460E4617460024AB
:101900007D0131464046FFF7E1FF00BF06E00D498B
:10191000485D00F024FF6D1C601CC4B2102CF6DB87
:10192000701CC1B24046FFF7D1FF002406E0054914
:10193000485D00F014FF6D1C601CC4B2102CF6DB77
:10194000BDE8F0812A0100202DE9F04180460E46D5
:10195000174600BF07EB4700C50031464046FFF77A
:10196000B5FF002406E00D49485D00F0F8FE6D1C4F
:10197000601CC4B20C2CF6DB701CC1B24046FFF7F1
:10198000A5FF002406E00549485D00F0E8FE6D1C57
:10199000601CC4B20C2CF6DBBDE8F0813A000020DC
:1019A0002DE9F0470646894617469A464FF000084B
:1019B00000240025BAF1010F06D0BAF1020F29D098
:1019C000BAF1030F25D15DE020E0785D203800F00A
:1019D000FF087E2E04DD002609F1010000F0FF095A
:1019E00049463046FFF772FF002409E008EB480142
:1019F000434A02EB4101085D00F0B1FE601CC4B235
:101A0000062CF3DBB01DC6B2681CC5B2785D002899
:101A1000DBD172E032E0785D203800F0FF08782EEC
:101A200004DD002609F1010000F0FF0949463046B7
:101A3000FFF74CFF002407E004EB0811314A505C2B
:101A400000F08DFE601CC4B2082CF5DB09F101002A
:101A5000C1B23046FFF73AFF002408E004EB08115A
:101A60000831284A505C00F07AFE601CC4B2082C91
:101A7000F4DB06F10800C6B2681CC5B2785D002828
:101A8000C9D13AE035E0785D203800F0FF08782EC3
:101A900004DD002609F1010000F0FF094946304647
:101AA000FFF714FF002409E008EB480104EB810173
:101AB000154A505C00F053FE601CC4B2062CF3DBE8
:101AC00009F10100C1B23046FFF700FF00240AE02F
:101AD00008EB480104EB8101891D0B4A505C00F0C2
:101AE0003EFE601CC4B2062CF2DBB01DC6B2681C00
:101AF000C5B2785D0028C6D100BF00BFBDE8F08741
:101B00006C2F000894310008AA01002030B58BB07A
:101B100000200790089009900A9001252BA32EA27F
:101B200030A132A000F022FE07A80021029103910B
:101B3000CDE9041000912B0224A2019126A129A035
:101B4000FFF7E8FA00283BD1089A91B20798FFF70F
:101B5000F7F8FA20FEF7C0FF0446002C2CD02046F0
:101B6000FFF7B0FD022827D12046FFF78CFD06289D
:101B70001DD2DFE800F003080C10141827A000F0B5
:101B8000F5FD002517E02AA000F0F0FD13E02FA0DE
:101B900000F0ECFD0FE036A000F0E8FD0BE03CA00B
:101BA00000F0E4FD07E043A000F0E0FD03E04CA0FE
:101BB00000F0DCFD00BF00BF07A8FFF713FA02E04A
:101BC0004EA000F0D3FD28460BB030BD373238327E
:101BD000393431323000000031333639323838335D
:101BE0003100000034333431313200004F6E654E25
:101BF00065745F4465764C696E6B0D0A50524F49AF
:101C0000443A2025732C09415549463A2025732C26
:101C10000944455649443A25730D0A0054697073C6
:101C20003A09C1ACBDD3B3C9B9A60D0A0000000082
:101C30005741524E3A09C1ACBDD3CAA7B0DCA3BAD2
:101C4000D0ADD2E9B4EDCEF30D0A00005741524EAB
:101C50003A09C1ACBDD3CAA7B0DCA3BAB7C7B7A80D
:101C6000B5C4636C69656E7469640D0A0000000098
:101C70005741524E3A09C1ACBDD3CAA7B0DCA3BA92
:101C8000B7FECEF1C6F7CAA7B0DC0D0A000000000F
:101C90005741524E3A09C1ACBDD3CAA7B0DCA3BA72
:101CA000D3C3BBA7C3FBBBF2C3DCC2EBB4EDCEF323
:101CB0000D0A00005741524E3A09C1ACBDD3CAA724
:101CC000B0DCA3BAB7C7B7A8C1B4BDD328B1C8C8E0
:101CD000E7746F6B656EB7C7B7A8290D0A000000DF
:101CE0004552523A09C1ACBDD3CAA7B0DCA3BACEA3
:101CF000B4D6AAB4EDCEF30D0A0000005741524EFF
:101D00003A094D5154545F5061636B6574436F6E73
:101D10006E656374204661696C65640D0A0000009D
:101D20002DE9F04F91B004463649374800F019FFCD
:101D30000A210120FFF7F8F882465046FEF782FBA1
:101D40008346FEF79DFB07464FF066322F4BFEF7AA
:101D500098FA0546FEF7A7FB81462D494846FEF74F
:101D60005EFA8346FEF78CFB07464FF06632294B3E
:101D7000FEF7F9FA0546FEF796FB814624494846E8
:101D8000FEF7AEFB01D2DFF88890402101A8FEF7F4
:101D9000E2F921A12046FEF72CFA402101A8FEF726
:101DA000DAF9194802781DA101A800F0EFFC01A999
:101DB0002046FEF7DBF9402101A8FEF7CCF91148D7
:101DC00002781AA101A800F0E1FC01A92046FEF763
:101DD000CDF9402101A8FEF7BEF94846FEF737FBD2
:101DE00005462A4615A101A800F0D0FC01A920460D
:101DF000FEF7BCF92046FEF7E1F9C0B211B0BDE82C
:101E0000F08F0000370000203600002066664A3F51
:101E10000000C84266660A402C3B000054656D70A5
:101E2000657261747572652C25643B0048756D6937
:101E3000646974792C25643B00000000547572625B
:101E400069646974792C25643B0000002DE9F04138
:101E50008AB080460020069007900890099005906F
:101E60000490039000260027002400254046FFF739
:101E700029FC0646042E22D00F2E26D103AB05AA3C
:101E800004A94046FFF7B9FB0746BFB9BDF80C30BF
:101E900034A0DDE9041200F069FC06AADDE90401C2
:101EA000FFF7F2F850B938A000F060FC079A91B241
:101EB0000698FEF745FF06A8FFF794F808E04046AD
:101EC000FFF7F0FB00B903E000BF4FF0FF3700BFA2
:101ED00000BFFEF7F3FD781C10B90AB0BDE8F08131
:101EE0003A210598FEF760F90446002C2ED0781CA4
:101EF00000282BD0641C05E014F8012B28466D1C2B
:101F00000DF800202078302802DB20783928F3DD16
:101F100000200DF805006846FEF774F9054620A17B
:101F20000598FEF72FF930B129461FA000F01EFCDE
:101F300020490D700AE020A10598FEF723F928B189
:101F400029461FA000F012FC20490D700F2E01D071
:101F5000032E05D1049800F081FE059800F07EFE66
:101F600000BFBAE7636D6469643A2025732C207260
:101F700065713A2025732C207265715F6C656E3A2D
:101F80002025640D0A000000546970733A095365F6
:101F90006E6420436D64526573700D0A000000008A
:101FA0006F6E6F66660000006F6E6F6666203D2084
:101FB00025640000380000207377697463680000AE
:101FC000737769746368203D202564003900002020
:101FD00030B5A5B0002021902290239024900024B9
:101FE0000025802101A8FEF7B6F801A8FFF798FEAA
:101FF0000446002C20D021A8052300222146009071
:102000000EA0FFF7A9FAA0B908E001A8415D229A45
:10201000501C229021988154681C05B2A542F4DB23
:10202000229A91B22198FEF78BFE21A8FEF7DAFFE3
:1020300002E005A000F09AFB25B030BD37323832FF
:1020400039343132300000005741524E3A094D5177
:1020500054545F4E657742756666657220466169C5
:102060006C65640D0A000000704700000146002006
:10207000034A506820F44040084350607047000015
:102080000010024029B1064AD2690243044BDA61CA
:1020900004E0034AD2698243014BDA6170470000D1
:1020A0000010024029B1064A92690243044B9A612A
:1020B00004E0034A92698243014B9A617047000031
:1020C0000010024029B1064AD2680243044BDA608C
:1020D00004E0034AD2688243014BDA607047000093
:1020E0000010024030B500210022002400232D4DB5
:1020F0006D6805F00C0121B1042905D0082923D110
:1021000005E0294D056022E0274D05601FE0254DC3
:102110006D6805F47012234D6D6805F48034022556
:1021200005EB92421CB9214D554305600BE01D4D56
:102130006D6805F400351DB11C4D5543056002E086
:10214000194D5543056002E0174D056000BF00BF03
:10215000144D6D6805F0F0010909154D6B5C0568BB
:10216000DD4045600F4D6D6805F4E061090A104DD2
:102170006B5C4568DD4085600A4D6D6805F4605113
:10218000C90A0B4D6B5C4568DD40C560054D6D6847
:1021900005F44041890B074D6B5CC568B5FBF3F551
:1021A000056130BD0010024000127A0000093D00B8
:1021B0001E0000202E000020704710B500F002F82D
:1021C00010BD00000CB5002001900090334800685D
:1021D00040F480303149086000BF3048006800F4A6
:1021E000003000900198401C0190009818B90198A7
:1021F000B0F5A06FF1D12948006800F4003010B1AB
:102200000120009001E0002000900098012843D1B7
:102210002348006840F01000214908600846006823
:1022200020F0030008600846006840F002000860E3
:102230001A4840681949486008464068486008469E
:10224000406840F4806048600846406820F47C1094
:1022500048600846406840F4E81048600846006856
:1022600040F08070086000BF0C48006800F000700B
:102270000028F9D00948406820F003000749486069
:102280000846406840F00200486000BF03484068CC
:1022900000F00C000828F9D10CBD0000001002402D
:1022A00000200240042808D14FF0E021096941F0E4
:1022B00004014FF0E022116107E04FF0E0210969CD
:1022C00021F004014FF0E0221161704710B513486E
:1022D000006840F001001149086008464068104954
:1022E00008400E494860084600680E4908400B49FE
:1022F00008600846006820F48020086008464068AE
:1023000020F4FE0048604FF41F008860FFF755FF7F
:102310004FF000600449086010BD0000001002404A
:102320000000FFF8FFFFF6FE08ED00E010B540F2F8
:1023300025511D4800F086F810B31B4800F03EF907
:10234000C4B21A48008800F40040C8B91748008891
:1023500000F4804060B10A2C03D0002013490880AB
:1023600020E01248008840F400401049088019E03D
:102370000D2C06D10D48008840F480400B490880A0
:1023800010E00A480088C0F30D0009490C540748C2
:102390000088401C0549088008460088C72801DDE0
:1023A0000020088010BD0000003801401C00002003
:1023B000200A002010B540F225510E4800F042F8E6
:1023C000B0B10D480088802802D300200A49088057
:1023D0000848001D0088C1B2074802880088401CD8
:1023E000054B1880054881542021024800F008F868
:1023F00010BD00000044004032000020E80A002028
:1024000001F40072B2F5007F00D100BFCA43028020
:10241000704721B1828942F40052828104E08289AE
:102420004DF6FF731A408281704702460020B1F5D5
:10243000007F00D100BF13880B400BB1012000E0EA
:102440000020704770B502460024002300250020BC
:1024500040F66A16B14200D100BFC1F3421501F047
:102460001F03012606FA03F3012D02D1968933409A
:1024700006E0022D02D1168A334001E0968A3340ED
:102480000C12012606FA04F41688344013B10CB17C
:10249000012000E0002070BDF0B5034600240026B6
:1024A0000025002040F66A17B94200D100BF184647
:1024B000C1F3421401F01F06012707FA06F5012CAB
:1024C00001D10C3004E0022C01D1103000E01430B6
:1024D0001AB107682F43076002E00768AF4307603F
:1024E000F0BD00002DE9F04786B005460E460024F9
:1024F000A24600BFA1460027B08900B100BF2F4609
:102500002C8A4CF6FF700440F08804432C82AC897E
:102510004EF6F3100440B0883189084371890843AE
:102520000443AC81AC8A4FF6FF400440B0890443B9
:10253000AC8201A8FFF7D6FD1F48874202D1DDF823
:1025400010A001E0DDF80CA0A88900F4004040B123
:102550000AEBCA0000EB0A1031684900B0FBF1F841
:1025600007E00AEBCA0000EB0A1031688900B0FBF3
:10257000F1F86420B8FBF0F004012009642101FBAC
:102580001089A88900F4004040B1322000EBC90056
:10259000B0FBF1F000F00700044308E0322000EB4C
:1025A00009106421B0FBF1F000F00F0004432C810E
:1025B00006B0BDE8F0870000003801400146888879
:1025C000C0F308007047C1F308028280704700BF63
:1025D000FEE7000010B586B00446012144F2040075
:1025E000FFF760FD4FF40070ADF8140003208DF884
:1025F000160018208DF8170005A91C48FEF7DCFB13
:102600004FF48060ADF8140004208DF8170005A980
:102610001648FEF7D1FB25208DF8000003208DF829
:1026200001008DF8020001208DF803006846FFF7D5
:1026300087F801940020ADF80800ADF80A00ADF865
:102640000C00ADF810000C20ADF80E0001A90848F0
:10265000FFF748FF012240F225510548FFF71CFF14
:1026600001210348FFF7D5FE06B010BD0008014068
:102670000038014010B586B0044601210420FFF760
:1026800011FD01214804FFF7FDFC18208DF817000B
:102690000420ADF8140003208DF8160005A91E488B
:1026A000FEF78AFB04208DF817000820ADF814000F
:1026B00003208DF8160005A91748FEF77DFB01944D
:1026C0000020ADF810000C20ADF80E000020ADF891
:1026D0000C00ADF80A00ADF8080001A90F48FFF79B
:1026E00001FF01210D48FFF794FE012240F2255120
:1026F0000A48FFF7D1FE26208DF8000001208DF852
:10270000030000208DF801008DF802006846FFF7F5
:1027100017F806B010BD000000080140004400405A
:1027200070B504460D4600260DE014F8011B07485D
:10273000FFF749FF00BF40210448FFF776FE00285D
:10274000F9D0701C86B2AE42EFDB70BD0044004091
:1027500010B5044621460020FEF724FC10BD10B53C
:10276000044621464020FEF71DFC10BD0FB4054B6A
:1027700010B503A9044A029800F030F810BC5DF8C7
:1027800014FB0000412C0008180000200FB4084B77
:1027900010B504A902AA039800F020F8044602A983
:1027A000002000F0F7F8204610BC5DF814FB000094
:1027B00095290008004870471C0A002002E008C85C
:1027C000121F08C1002AFAD170477047002001E0AB
:1027D00001C1121F002AFBD1704700002DE9FF4FF5
:1027E0008BB09A460F460546002606E025280BD0FA
:1027F00052460D9990476D1C761C28780028F5D11B
:102800000FB03046BDE8F08F0024A0460122604999
:1028100000E0044315F8013F203B02FA03F00842B0
:10282000F7D128782E2817D115F8010F44F00404A9
:102830002A280ED06FF02F022878A0F13001092944
:102840000AD808EB880102EB410100EB01086D1C7E
:10285000F2E757F8048B6D1C287869283ED006DC17
:102860000028CDD063280BD0642804D136E073282B
:1028700010D075284BD052460D999047761C85E0B4
:1028800017F8040B8DF8000000208DF80100E946D0
:10289000012003E057F8049B4FF0FF3061074FF031
:1028A000000401D40AE0641C44450DDA8442FADBDA
:1028B00019F804100029F6D106E0641C8442FCDB00
:1028C00019F804100029F8D1264404E019F8010B86
:1028D00052460D999047641EF8D257E001CF4FF051
:1028E0000A0B002802DA40422D2102E0210504D51E
:1028F0002B218DF82410012103E0E10705D02021D0
:10290000F7E70DF1200908910CE00021F9E701CF6C
:102910004FF00A0BF9E75946FDF7ECFD01F13002E3
:1029200009F8012D0028F6D1ADEB090000F1200BCC
:10293000600701D44FF00108D84502DDA8EB0B0079
:1029400000E000208046002406E009A85246005D11
:102950000D999047641C761C08988442F5DB04E0CE
:10296000302052460D999047761CB8F10001A8F12D
:102970000108F5DC05E019F8010B52460D99904766
:10298000761CBBF10001ABF1010BF4DC6D1C34E7EC
:10299000092801000A68531C0B6010707047000082
:1029A00010B56FF00400FFF77DFC0A4800680A4983
:1029B000B0FBF1F0094908700846007800EB4001CF
:1029C000C1EBC0104FF6FF7101EAC0000449088056
:1029D00010BD00000000002000127A00140000204A
:1029E000160000200146114A12884A434FF0E023A6
:1029F0005A6100229A611A46126942F001021A6174
:102A000000BF4FF0E022106900F001021AB100F49B
:102A10008032002AF5D04FF0E022126922F0010244
:102A20004FF0E0231A6100229A61704716000020DF
:102A30000146114A12784A434FF0E0235A610022BE
:102A40009A611A46126942F001021A6100BF4FF002
:102A5000E022106900F001021AB100F48032002A6D
:102A6000F5D04FF0E022126922F001024FF0E0238E
:102A70001A6100229A6170471400002010B50024EA
:102A800000F0B2F804E0601CC4B20120FFF7D0FFF0
:102A90004FF400510F48FEF71AFA08B1642CF2DB2C
:102AA000642C01DB012010BD002404E0601CC4B2D2
:102AB0006420FFF7BDFF4FF400510648FEF707FA08
:102AC00008B9642CF2DB642C01DB0120EBE7002069
:102AD000E9E70000000C014010B500F09BF800F0A1
:102AE0006DF8FFF7CBFF10BD10B5002404E0601CAB
:102AF000C4B20120FFF79CFF4FF400511048FEF7CD
:102B0000E6F908B1642CF2DB002404E0601CC4B2D6
:102B10000120FFF78DFF4FF400510948FEF7D7F968
:102B200008B9642CF2DB2820FFF782FF4FF4005134
:102B30000348FEF7CCF908B1012010BD0020FCE7E6
:102B4000000C014070B50024002506E06006040E6C
:102B5000FFF7CAFF0443681CC5B2082DF6DB204608
:102B600070BD7CB505460E4600F028F8FFF786FFDD
:102B7000F8B9002405E0FFF7E5FF0DF80400601C3C
:102B8000C4B2052CF7DB9DF800009DF80110084445
:102B90009DF8021008449DF8031008449DF80410A5
:102BA000884208D19DF8000030709DF8020028701E
:102BB00001E001207CBD0020FCE7000010B500F022
:102BC00029F84FF400510748FEF78AF91420FFF75F
:102BD00009FF4FF400510348FEF784F91E20FFF768
:102BE00027FF10BD000C014008B501210820FFF7A8
:102BF00059FA4FF40050ADF8000048208DF803005A
:102C000003208DF8020069460148FEF7D5F808BD9B
:102C1000000C014008B501210820FFF743FA4FF4EA
:102C20000050ADF8000010208DF8030003208DF84F
:102C3000020069460148FEF7BFF808BD000C0140DC
:102C400000BF054A128802F04002002AF9D0C2B241
:102C5000014B1B1D1A8070470038014010B5002839
:102C600021D0114B0022001F196803E0814203D8D4
:102C70000A4649680029F9D152B11368841A9C4266
:102C800004D1006818441060104602E0506000E073
:102C9000186039B102680B1A934203D10B681A44C9
:102CA00002604968416010BD140A002008B5012186
:102CB0001020FFF7F7F910208DF803004002ADF85F
:102CC000000003208DF8020069460248FEF774F800
:102CD00008BD00000010014008B501210420FFF7E5
:102CE000E1F9C020ADF8000003208DF802001420A7
:102CF0008DF8030069460348FEF75EF800F04EF8D1
:102D000008BD000000080140002001E0411CC8B2DD
:102D10000A28FBDB7047000070B50446002520E060
:102D200004F0800018B180200F49086003E0802083
:102D30000D49091D0860FFF7E7FF40200A490860B8
:102D4000FFF7E2FF40200849091D0860072D02D166
:102D50008020091F08606006040EFFF7D5FF681C7D
:102D6000C5B2082DDCDB70BD1008014010B5802015
:102D70000949086040200860FFF7C6FF8020064927
:102D8000091D0860FFF7C0FF40200349091D0860C6
:102D9000FFF7BAFF10BD00001008014010B58020F9
:102DA000054908604020091F0860FFF7ADFF80203B
:102DB0000149091F086010BD1408014010B58020AA
:102DC0000C490860FFF7A0FF40200A490860FFF7A0
:102DD0009BFF08480838006800F0800008B1012413
:102DE00000E0002440200349091D0860FFF78CFF24
:102DF000204610BD10080140B2B000254FF4967671
:102E0000642119A8FDF7A7F964216846FDF7A3F925
:102E1000FEF7A0F8FEF7D6FC6AE00A20FFF7E2FD15
:102E2000701C86B2B6F5967F5ADB32493248FFF7FE
:102E300098FE3148027831A119A8FFF7A7FC2D4868
:102E400002782EA16846FFF7A1FC002409E01621B4
:102E500001EB0411C8B222460021FEF74BFD601CB5
:102E6000C4B2042CF3DB4FF4FA60FFF7BBFD00247F
:102E700009E004EB44018906080E22460321FEF70F
:102E800063FD601CC4B2032CF3DB032319AA1946AB
:102E90002820FEF785FD032211464220FEF754FD4F
:102EA00004240BE004EB44013022C2EB8101C8B2E0
:102EB00022460521FEF748FD601CC4B2072CF1DB59
:102EC00003236A4605212820FEF76AFD0322052117
:102ED0004220FEF739FDFFF77BF80026FDF7EEFDF7
:102EE0000020FDF7F9FD054615B12846FEF7AEFFB7
:102EF00093E7000037000020360000202564000022
:102F0000F0B50B30154D20F007010024144A0FE0F6
:102F100003688B420BD38B4205D95E1A431847686E
:102F2000C3E9006700E04368136002C004E0021DCB
:102F300010680028ECD12046002802D1286808B18A
:102F40000020F0BD064A07481060074A121A22F016
:102F50000702C0E9002401202860D7E7180A0020F2
:102F6000140A00206C0B0020680D002000000000F7
:102F700000000000002F0000000007000700001400
:102F80007F147F1400242A7F2A120062640813230E
:102F900000364955225000000503000000001C22A5
:102FA0004100000041221C000014083E08140008E3
:102FB000083E0808000000A0600000080808080893
:102FC000000060600000002010080402003E51492B
:102FD000453E0000427F40000042615149460021C9
:102FE00041454B31001814127F10002745454539E3
:102FF000003C4A494930000171090503003649493E
:10300000493600064949291E0000363600000000F6
:103010005636000000081422410000141414141441
:1030200000004122140800020151090600324959EA
:10303000513E007C1211127C007F49494936003E06
:1030400041414122007F4141221C007F49494941C1
:10305000007F09090901003E4149497A007F0808BB
:10306000087F0000417F4100002040413F01007F78
:1030700008142241007F40404040007F020C027F44
:10308000007F0408107F003E4141413E007F090956
:103090000906003E4151215E007F0919294600467C
:1030A000494949310001017F0101003F4040403F53
:1030B000001F2040201F003F4038403F006314089D
:1030C0001463000708700807006151494543000078
:1030D0007F41410000552A552A55000041417F009B
:1030E0000004020102040040404040400000010290
:1030F0000400002054545478007F48444438003879
:103100004444442000384444487F00385454541800
:1031100000087E0901020018A4A4A47C007F080412
:1031200004780000447D4000004080847D00007FE2
:10313000102844000000417F4000007C04180478FF
:10314000007C0804047800384444443800FC2424FB
:1031500024180018242418FC007C080404080048E3
:103160005454542000043F444020003C4040207C04
:10317000001C2040201C003C4030403C00442810F3
:103180002844001CA0A0A07C004464544C441414A7
:1031900014141414000000000000000000000000DF
:1031A00000000000000000F80000000000000033F4
:1031B0003000000000100C06100C0600000000009B
:1031C0000000000040C07840C0784000043F040484
:1031D0003F040400007088FC08300000001820FF45
:1031E000211E0000F008F000E018000000211C0380
:1031F0001E211E0000F00888700000001E212324FC
:103200001927211010160E00000000000000000019
:1032100000000000000000E01804020000000007A9
:103220001820400000020418E000000000402018B0
:1032300007000000404080F0804040000202010F83
:1032400001020200000000F0000000000101011F67
:1032500001010100000000000000000080B07000CB
:10326000000000000000000000000000000101015B
:1032700001010101000000000000000000303000EA
:1032800000000000000000008060180400601806C4
:103290000100000000E010080810E000000F1020FE
:1032A00020100F00001010F8000000000020203F48
:1032B00020200000007008080888700000302824D2
:1032C0002221300000300888884830000018202073
:1032D00020110E000000C02010F800000007042498
:1032E000243F240000F808888808080000192120DD
:1032F00020110E0000E0108888180000000F112037
:1033000020110E0000380808C83808000000003FEF
:10331000000000000070880808887000001C22214E
:1033200021221C0000E010080810E00000003122FB
:1033300022110F00000000C0C0000000000000309B
:1033400030000000000000800000000000008060ED
:10335000000000000000804020100800000102046E
:103360000810200040404040404040000404040455
:103370000404040000081020408000000020100811
:1033800004020100007048080808F0000000003046
:1033900036010000C030C828E810E00007182724D4
:1033A00023140B000000C038E0000000203C230282
:1033B0000227382008F8888888700000203F2020E5
:1033C00020110E00C0300808080838000718202017
:1033D0002010080008F808080810E000203F20200E
:1033E00020100F0008F88888E8081000203F2020EF
:1033F0002320180008F88888E8081000203F2000E3
:1034000003000000C030080808380000071820201A
:10341000221E020008F808000008F808203F2101D9
:1034200001213F20000808F8080800000020203F84
:103430002020000000000808F8080800C0808080F4
:103440007F00000008F888C028180800203F2001ED
:103450002638200008F8080000000000203F202047
:103460002020300008F8F800F8F80800203F003F5E
:10347000003F200008F830C00008F808203F200076
:1034800007183F00E01008080810E0000F10202087
:1034900020100F0008F808080808F000203F21015C
:1034A00001010000E01008080810E0000F182424B3
:1034B00038504F0008F8888888887000203F200026
:1034C000030C3020007088080808380000382021DC
:1034D00021221C00180808F8080818000000203FE6
:1034E0002000000008F808000008F808001F20204D
:1034F00020201F000878880000C83808000007381E
:103500000E010000F80800F80008F800033C07006E
:10351000073C0300081868808068180820302C03D6
:10352000032C30200838C800C83808000000203FAD
:103530002000000010080808C8380800203826219C
:1035400020201800000000FE020202000000007FA0
:1035500040404000000C30C00000000000000001AE
:103560000638C00000020202FE0000000040404099
:103570007F000000000004020202040000000000BE
:10358000000000000000000000000000808080803B
:103590008080808000020204000000000000000023
:1035A00000000000000080808080000000192422BC
:1035B00022223F2008F8008080000000003F1120F8
:1035C00020110E000000008080800000000E1120FD
:1035D00020201100000000808088F800000E1120DB
:1035E00020103F200000808080800000001F2222E9
:1035F00022221300008080F0888888180020203F55
:10360000202000000000808080808000006B949467
:103610009493600008F8008080800000203F210023
:1036200000203F2000809898000000000020203FEC
:1036300020200000000000809898000000C08080DA
:10364000807F000008F8000080808000203F240276
:103650002D302000000808F8000000000020203F66
:10366000202000008080808080808000203F20001B
:103670003F20003F8080008080800000203F2100AC
:1036800000203F200000808080800000001F20205C
:1036900020201F00808000808000000080FFA1208B
:1036A00020110E000000008080808000000E11209C
:1036B00020A0FF80808080008080800020203F212B
:1036C00020000100000080808080800000332424DE
:1036D00024241900008080E0808000000000001F8A
:1036E000202000008080000000808000001F20203B
:1036F00020103F20808080000080808000010E30FC
:103700000806010080800080008080800F300C035C
:103710000C300F0000808000808080000020312E5F
:103720000E312000808080000080808080818E703B
:103730001806010000808080808080000021302CED
:103740002221300000000000807C02020000000006
:10375000003F404000000000FF00000000000000AB
:10376000FF0000000002027C800000000040403F9B
:103770000000000000060101020204040000000035
:103780000000000000404040404040404040414177
:103790004141414040404040404040404040404026
:1037A00040404040400502020202020202020202C0
:1037B00002020202022020202020202020202002BD
:1037C000020202020202909090909090101010104D
:1037D00010101010101010101010101010101010E9
:1037E000020202020202888888888888080808087D
:1037F0000808080808080808080808080808080849
:103800000202020240000000853700082C38000840
:1038100000000020200A0000DE070008C03C00086D
:10382000200A002048070000CC2700081184A24A83
:1038300004E00901020304060708092916691A852C
:10384000020406081322442008C05FD555D55FC086
:103850004E0402090F080221100BFE0A8ABEAAAB11
:10386000AABE8A0A130807280808090A04040A09D4
:1038700037A33030830303580C020502F804020218
:1038800002040E8070190122011F1122803E2AEAD3
:10389000021B3E80603B08095E2948094560280BF1
:1038A000102102F88888FF8888F8C0080A170504E4
:1038B0000404070404060C60380F808040201008C0
:1038C00024C30408102040804C294A768242221AE0
:1038D000064BFE820172FE4BFF400142FF1010902A
:1038E000523410FF10345280708F0808F808100806
:1038F000829A566322528E10088040330C334080E7
:103900001A101E1290100AFE929292F292929E80CB
:10391000100842827F0180601F0710FC4447444426
:10392000FC4A7CDC416C040304ED1B90FC0219FD95
:103930001902111E1824FE4488EE1A07ED1F3844A0
:10394000F8D02CC016180D010201C038E418E02090
:103950000102020C79395144F806012303043C01A9
:1039600006F85A29541C60F8605411391CC62020EE
:10397000F8202049423A2001D1399B214DC0300C1A
:1039800002241EF8040404F8811979213A08D11B95
:103990000203261618844424181A031812025E081B
:1039A000042424D8245EC0A098FC80255E7C2424B6
:1039B00024C4186EF0482424C8482D04C4340CB321
:1039C000311AD824693C3D384444246C39B59A10E6
:1039D0009149A542061C609008EA19D912023A5092
:1039E0000169D31C0890602F293B1C1804C49C4912
:1039F0003C5FF008E4F48478611DE09CF0809A1943
:103A00007A2C0204FC7819A6191729E45A0C232BE6
:103A100004FCF0491819243B740C0C8A030C39542B
:103A20004D0444CC40A95F04FC2020FC0454293DF3
:103A300011192E1A0226390D1D0C0808070B1DFC42
:103A400024508C243A027829BE2923100A0203FC50
:103A50003CC03CFC0403190219182B30C44819243B
:103A600039905AF8904CF884840C2B0705483B6435
:103A7000988418080302182424448C0829241A0C5A
:103A8000553A0C55296C211963499C1D7C80E01C1A
:103A90006F199D112E3CC07CC03C0B190D1D049C60
:103AA000609CA82977111A04841923393C1C0C84C2
:103AB000642F49F02134FF01011A07D2115406384E
:103AC000C01B0106043301FF1B0404D8111B0201B3
:103AD00036C13A0801197EA11C40A0A03D199019D9
:103AE000571CFE20200C1909195A3DC020206018CF
:103AF000390C5B22FE24116AC03019444D20FC228F
:103B0000229139481360204E050A0A0A0448292DDB
:103B100019034320E639C01931190D1981199C1C6C
:103B200002FE802F19C9198C1979292339481CE004
:103B300020E03C19FB1902190B8948199049785A61
:103B400001185C080F0AA82AE01828080A0F0820A4
:103B5000E0402054396B2D60A0A020551963111B43
:103B600020F81839D9193C290349CC19093AE01829
:103B7000292F1C80E080F02977115B20609C29BFF1
:103B8000192D2EE020080805252A20E359F0111BE5
:103B900020FF7E2143070452FF320F2B01DF531A0F
:103BA00004E3112C020101A261100A03050911FFAF
:103BB000118905C312E012F072F8073D4428FF1185
:103BC000AA44700B830138448292927401831E7C54
:103BD00044C7017D019905499F119A0102818A011B
:103BE0000B013669419949FA0101A12A4001212AB4
:103BF0006D01212A6001791501642ADB010915078D
:103C00002ADA01212AD801212AC0010915072A80B0
:103C10000101352A06010918071CE66620076A8695
:103C2000157A861C2A8601180A8080868606868672
:103C3000C0C00C0E1C0606D030764D29070131138A
:103C4000601C12FE1301021009C41820029E63B208
:103C50000E1DFF8181FFF24440300F12FF1809232F
:103C6000EAAABFAAEA033F0B012DBC8080800801AD
:103C700015240E0C082A01013149041D8180808120
:103C8000021901B91706110101090C0E0A14C0012D
:103C90002178081E21404050215E08012A4DFFFF77
:103CA000C1C10409232DE81580FCF3EFF3FC80FF6C
:103CB00080EEEEEEF5FBFF9CBEB6B6883A00000043
:0400000508000101ED
:00000001FF
